:100000000C94A7000C9419010C9419010C9419017B
:100010000C9419010C9419010C94473D0C9419018E
:100020000C9419010C9419010C9419010C941901E8
:100030000C9419010C9408380C9419010C941901B2
:100040000C9419010C9419010C9419010C941901C8
:100050000C9419010C9419010C9419010C941901B8
:100060000C9419010C9419010C9419010C941901A8
:100070000C9419010C9419010C9419010C94190198
:100080000C9419010C9419010C9419010C94190188
:100090000C9419010C9419010C9419010C94190178
:1000A0000C9419010C9419010C9419010C94190168
:1000B0000C9419010C9419010C9419010C94190158
:1000C0000C9419010C9419010C941901FFFFFF30D5
:1000D000FFFFFFFFFFFFFFFFFFFFFFFFFFFF00002E
:1000E0000000000000000000000000000000000010
:1000F0000000000000000000000000000000000000
:1001000000000000000000000000000000000000EF
:1001100000000000000000000000000000000000DF
:1001200000000000000000000000000000000000CF
:1001300000000000000000000000000000000000BF
:10014000000000000000000000000000000084E843
:1001500080937400479A3F9A469A3E9A81EE809324
:1001600000C380E4809301C385B78F7785BF80E0AB
:1001700090E0359B05C0019641F0359BF8CFFBCF51
:10018000019619F03599F3CFFBCF85B7806885BF0D
:1001900047983F9846983E9887E08093C4008093A4
:1001A000CC0011241FBECFEFD1E2DEBFCDBF13E0E4
:1001B000A0E0B2E0E0E9F0E900E00BBF02C0079088
:1001C0000D92AA3EB107D9F714E0AAEEB3E001C040
:1001D0001D92A13FB107E1F78FEF9FE79EBF8DBF53
:1001E0008FEF9FE7815F94408158914040F06FEF1F
:1001F0007EE7615F744081EF94E00E94352E0E949B
:10020000DD34892B41F065EE72E08FED94E00E94C1
:10021000CB470E94C43420E831E040E050E06FEA70
:1002200071E08EEE92E00E94CE360E9400000C94A7
:1002300047480C940000CF93DF93CDB7DEB72497E7
:100240000FB6F894DEBF0FBECDBF80E092ECA1E008
:10025000B0E089839A83AB83BC8340E060E070E0C8
:100260008DE193E00E949834409193035091940360
:1002700060E072E082E092E00E94B34180919303DB
:10028000909194030E945341AE014F5F5F4F61E034
:1002900071E00E94414188E092E00E943E4240E0CD
:1002A00060E070E080E493E00E949834892B19F0BC
:1002B0008CE292E00EC020E030E040E050E060E0F0
:1002C00070E085E492E00E941A03892B21F08AE411
:1002D00092E00E943E426091B4047091B504809116
:1002E000B6049091B7040E94D21A9F938F9383E62D
:1002F00092E09F938F930E941E4220E032E040E004
:1003000050E06EE871E084E992E00E94CE360F90F2
:100310000F900F900F900E94C22FFDCF0E94541695
:100320008C0167E170E00E94E51620E032E040E0D9
:1003300050E06EE871E084E992E00E94CE3648E435
:1003400050E06CE972E0C8010E942614C8010E94C6
:10035000BE150E94792FFFCF8093F80208950E9466
:10036000983220E033E040E050E06BE171E083EF51
:1003700092E00E94CE368EEF0E943E2F0E94C22F46
:100380000E94092F2091F8022F3FC1F393B783B742
:10039000817F822B83BF83B7816083BF889583B7BA
:1003A0008E7F83BF83B7817F9E70892B83BFE6CF0B
:1003B000CF93DF93DC01FC0187E3819393E0ED01B0
:1003C0009983DF01119681E08183FD01918386E0AD
:1003D000828385E090E0DF91CF9108958091EF03D3
:1003E000992708958091F0039091F1031092F10301
:1003F0001092F003089520E030E08091EF03853003
:1004000011F421E030E0C9010895DF92EF92FF92EC
:100410000F931F93CF93DF93D62E79018A010E9409
:100420007C34EC01892B51F08B85833039F4EF85D6
:10043000F889309719F08081863049F081E190E0A9
:100440009093F1038093F0038FEF9FEF35C00E94EC
:1004500070316093FA037093FB038093FC039093D5
:10046000FD03E092F603F092F7030093F803109374
:10047000F903D092EF038091ED039091EE03892B65
:1004800069F420E032E0AE016CE877E089EF92E0B9
:100490000E94CE369093EE038093ED0382EF93E0BB
:1004A0000E94AF3340E050E060E070E084EF93E002
:1004B0000E94023480E090E0DF91CF911F910F9174
:1004C000FF90EF90DF900895FC019A01AB018091BD
:1004D000EF03882349F083E090E09093F103809349
:1004E000F0038FEF9FEF089568E0CF010E940502AF
:1004F0000895FC019A01AB018091EF03853049F02A
:1005000083E090E09093F1038093F0038FEF9FEFEF
:10051000089569E0CF010E9405020895CF92DF920D
:10052000EF92FF920F931F93CF93DF93FC0184E22E
:1005300092E0DF011D920197E9F781E080838183DA
:1005400086E08283DF015C96CEEAD4E009900D92CA
:100550008150E1F724833583468357830C2CCD2CBF
:10056000D02CD186C086E486F58606871787DF0102
:10057000A451BF4F93E6FD01919382E8ED01898379
:10058000DF01119683E58183FD013196ED019983A9
:10059000DF01119685E3818381E0FD018183628320
:1005A00087E090E0DF91CF911F910F91FF90EF9046
:1005B000DF90CF900895CF93DF93CDB7DEB722972A
:1005C0000FB6F894DEBF0FBECDBFDC015A8349835E
:1005D000FC0161939F0182E0FD01818389819A8101
:1005E000082E892F902DF9019283818384E090E079
:1005F00022960FB6F894DEBF0FBECDBFDF91CF912C
:1006000008950F931F93CF93DF93DC01CA01022F4C
:10061000FD016193ED0129831127A801BC01CF01E0
:1006200001960E94B247C8010296DF91CF911F91B7
:100630000F9108954F925F926F927F928F929F9247
:10064000AF92BF92CF92DF92EF92FF920F931F93E0
:10065000CF93DF93CDB7DEB760970FB6F894DEBFC8
:100660000FBECDBF3C012B012D873E874F87588B96
:100670000E947C345C01009769F0FC018385833023
:1006800049F4C784D088C114D10421F0F6018081D7
:10069000863019F081E190E039C08E01095F1F4F6B
:1006A000F80111928A95E9F746E050E06FEF70E0AB
:1006B0004E010894811C911CC4010E94BB47760125
:1006C0000894E11CF11C46E050E0B801C7010E940B
:1006D000A547892B41F046E050E0B401C7010E94D4
:1006E000A547892B31F54114510449F0AEEAB4E035
:1006F000F20186E001900D92815069F0FBCFC301B9
:100700000E94071D892B39F082E090E09093F1035D
:100710008093F00399C0F701AEEAB4E086E00D9053
:1007200001928150E1F764EF71E080E090E00E9477
:100730001A312091C0043091C1044091C2045091FB
:10074000C304E090B804F090B9040091BA04109189
:10075000BB04DA01C9018E219F21A023B123009798
:10076000A105B10549F02093B4043093B50440933A
:10077000B6045093B70458C02D853E854F855889DF
:1007800061E0C3010E940502892B09F05DC08091E0
:10079000EF03853031F5E091EB03F091EC03C58474
:1007A000D684E784F08805811681278130854181D0
:1007B000528163817481C5010E943E1BE091EB036D
:1007C000F091EC03E588F6880789108D218932893C
:1007D0004389548960E070E080E090E00E94B10EAF
:1007E00030C0F60187819085A185B2850097A1056B
:1007F000B10539F52091B4043091B5044091B604A7
:100800005091B704E090B804F090B9040091BA0494
:100810001091BB04DA01C9018E219F21A023B123CD
:100820000097A105B10581F0A090BC04B090BD0473
:10083000C090BE04D090BF046EEA74E0C3010E9471
:10084000391C80E090E002C08FEF9FEF60960FB6FA
:10085000F894DEBF0FBECDBFDF91CF911F910F91F6
:10086000FF90EF90DF90CF90BF90AF909F908F90D0
:100870007F906F905F904F900895CF93DF93EC013E
:10088000892B79F089A59AA5009711F00E94604202
:100890008BA59CA5009711F00E946042CE010E949A
:1008A0006042DF91CF910895EF92FF920F931F93D3
:1008B000CF93DF938C017B01EA01DC018D919C9148
:1008C000009711F00E946042CE0101960E9463429F
:1008D000F80191838083009761F0209721F0AE01A9
:1008E000B7010E94B247D801ED91FC91EC0FFD1FBA
:1008F0001082DF91CF911F910F91FF90EF9008959B
:100900004F925F927F928F929F92AF92BF92CF92BF
:10091000DF92EF92FF920F931F93CF93DF938C019F
:100920007B018DE290E00E946342EC01009709F4A4
:1009300020C12C018DE2FE0111928A95E9F780EC2D
:1009400098EAA0E0B0E08DA39EA3AFA3B8A7F801FA
:1009500080899189A289B38989839A83AB83BC8377
:1009600080EFC82ED12CC00ED11E00E1A02E0FEFBB
:10097000B02EAE0CBF1CEAC0662339F40894C11C2B
:10098000D11C0894A108B108E1C0F6017180872C40
:100990009924A814B9040CF4E9C0653341F4F1E0DA
:1009A0007F1609F0E3C0F60182818883C3C06C30F2
:1009B00039F4B6016E5F7F4FA401CE01899608C05D
:1009C0006F3049F4B6016E5F7F4FA401CE018B9664
:1009D0000E945404AFC0F3E0F71508F0ABC0F60175
:1009E000228183819927AA27BB27EE24F82E092F7D
:1009F0001A2FE20EF11C011D111D258133274427FA
:100A00005527522F44273327222784819927AA2745
:100A1000BB27DC0199278827280F391F4A1F5B1F36
:100A2000E20EF31E041F151F613029F4ED82FE82D1
:100A30000F8318877FC06C3129F4E986FA860B870B
:100A40001C8778C0633029F4ED86FE860F87188BEB
:100A500071C0663009F041C0E98AFA8A0B8B1C8BA1
:100A6000F7E0F71508F066C0F60126813327442722
:100A700055272D8B3E8B4F8B588F87819927AA271F
:100A8000BB27BA2FA92F982F8827820F931FA41F47
:100A9000B51F8D8B9E8BAF8BB88F20853327442756
:100AA0005527A90133272227280F391F4A1F5B1F0B
:100AB0002D8B3E8B4F8B588F81859927AA27BB277B
:100AC000B82FAA2799278827280F391F4A1F5B1F8D
:100AD0002D8B3E8B4F8B588F2DC0663329F4E98EBA
:100AE000FA8E0B8F1C8F26C06A3359F40E2CE12E20
:100AF000102D0F2CF02E002DED8EFE8E0F8F18A3D3
:100B000019C06B3359F40E2CE12E102D0F2CF02E42
:100B1000002DE9A2FAA20BA31CA30CC0633351F46D
:100B20000E2CE12E102D0F2CF02E002DEDA2FEA28A
:100B30000FA318A7C70CD11C82E090E0C80ED91EE5
:100B4000A818B908EEEFFFEFAE0EBF1EF6016081E8
:100B50006F3F29F01A141B040CF40ECF07C08881D4
:100B6000823051F0853041F0863031F0CE010E9464
:100B70003D044424552439C08D8D9E8DAF8DB8A180
:100B80000097A105B10561F48DA19EA1AFA1B8A503
:100B9000B695A795979587958D8F9E8FAF8FB8A3A4
:100BA00089A19AA1ABA1BCA10097A105B105E9F467
:100BB0008D8D9E8DAF8DB8A19C01AD015695479549
:100BC00037952795280F391F4A1F5B1F62E0B6959E
:100BD000A795979587956A95D1F7280F391F4A1FD2
:100BE0005B1F29A33AA34BA35CA3C201DF91CF9162
:100BF0001F910F91FF90EF90DF90CF90BF90AF903B
:100C00009F908F907F905F904F900895EF92FF920A
:100C10000F931F93DC01F801E20FF31FE451FF4F24
:100C20008FEF808303511F4F81E00C32180710F4BF
:100C30000CE211E07801890123E430E0CD010E944B
:100C4000F51797FD03C080E090E008C083E190E0D5
:100C50009093F1038093F0038FEF9FEF1F910F911B
:100C6000FF90EF9008952F923F924F925F926F9274
:100C70007F928F929F92AF92BF92CF92DF92EF922C
:100C8000FF920F931F93CF93DF93CDB7DEB71C0175
:100C90002A013B014901A8019701860175019CEEDB
:100CA000A92EB12CA80CB91CCE8CDF8C63E0C4013A
:100CB0000E948E028C018E899F89A88DB98D009724
:100CC000A105B10561F024E0AE014A5E5F4F62E329
:100CD000C501800F911F0E940103080F191F8A8D03
:100CE0009B8DAC8DBD8D0097A105B10561F024E011
:100CF000AE01465E5F4F66E3C501800F911F0E9403
:100D00000103080F191FC501800F911F0E94D80110
:100D1000080F191FAFEDB4E0FD0101900020E9F7C5
:100D20003197EA1BFB0B1E161F0654F42E2FAD0144
:100D30006CE0C501800F911F0E940103080F191F6D
:100D40009401B301A201C1010E940606DF91CF9177
:100D50001F910F91FF90EF90DF90CF90BF90AF90D9
:100D60009F908F907F906F905F904F903F902F90CB
:100D700008956F927F928F929F92AF92BF92CF927F
:100D8000DF92EF92FF920F931F93CF93DF93CDB734
:100D9000DEB7EE89FF89FF93EF936A887B888C88A2
:100DA0009D889F928F927F926F92DF92CF92BF9297
:100DB000AF925701680179018A019B014FEF5FEF04
:100DC0006FEF7FEF0E9433062DB73EB7265F3F4F90
:100DD0000FB6F8943EBF0FBE2DBFDF91CF911F918C
:100DE0000F91FF90EF90DF90CF90BF90AF909F90CA
:100DF0008F907F906F9008952F923F924F925F92C5
:100E00006F927F928F929F92AF92BF92CF92DF921A
:100E1000EF92FF920F931F93CF93DF93CDB7DEB77F
:100E20002C970FB6F894DEBF0FBECDBF98878F8387
:100E300049875A876B877C873901470158010E948F
:100E400070311B012C016701780104E212E093016B
:100E5000AE014F5F5F4FBE016D5F7F4F8F81988501
:100E60000E9475189C01181619064CF0892BD1F1B7
:100E700084E190E09093F1038093F00333C0823FCC
:100E8000910590F0D3018C91823071F4F30184814B
:100E90009581A681B78149855A856B857C858417A4
:100EA0009507A607B707F1F00E9470316B017C012E
:100EB000C218D308E408F508D501C4018A5F904040
:100EC000A040B040C816D906EA06FB0648F4C501A2
:100ED000B4016C197D098E099F096B017C01B5CFA6
:100EE00020E030E0C9012C960FB6F894DEBF0FBEAB
:100EF000CDBFDF91CF911F910F91FF90EF90DF90C9
:100F0000CF90BF90AF909F908F907F906F905F90A9
:100F10004F903F902F900895CF93DF93CDB7DEB7DA
:100F2000A4970FB6F894DEBF0FBECDBF8C010E9410
:100F3000EC316D8B7E8B8F8B988F2091B404309128
:100F4000B5044091B6045091B7042C873D874E8775
:100F50005F87F801078510891C8F0B8FF801868148
:100F60009927AA27BB27BA2FA92F982F8827258131
:100F7000820F911DA11DB11DBA2FA92F982F88276F
:100F80002481820F911DA11DB11D6624782E892E0A
:100F90009A2E8381680E711C811C911C1CA21BA2BD
:100FA0001AA219A218A21F8E1E8E1D8E1A8E198EBD
:100FB000198A1A8A1B8A1C8A188A70EA272E7FE0EF
:100FC000372E412C512C3EC08091EB039091EC03C5
:100FD0000E943D042BA13CA13093EC032093EB0332
:100FE0000CC08091EB039091EC030E943D044BA157
:100FF0005CA15093EC034093EB031093EF038D89B6
:101000009E89AF89B88D898B9A8BAB8BBC8B16C0B0
:101010008091EB039091EC030E943D04ABA1BCA135
:10102000B093EC03A093EB031093EF032D893E895B
:101030004F89588D298B3A8B4B8B5C8B1CA21BA242
:101040003F81388B48894423E1F0220C331C441C37
:10105000551C51E025165AEF350650E0450650E084
:10106000550648F48FEF9FEFAFEFBFEF8887998762
:10107000AA87BB8736C0212C5AEF352E412C512C24
:1010800028C08091EF03833029F00894611C711C03
:10109000811C911CE091EB03F091EC03309799F0E7
:1010A000818D928DA38DB48D88879987AA87BB8700
:1010B0000097A105B10539F040EA242E4FE0342E07
:1010C000412C512C0EC030EA232E3FE0332E412C10
:1010D000512C2FEF3FEF4FEF5FEF288739874A877B
:1010E0005B878091EF03813051F40E9470316093EF
:1010F000FA037093FB038093FC039093FD0390919C
:10110000EF03892F85508530E0F1992309F4A5C5B7
:101110008091F6039091F703A091F803B091F90341
:101120000097A105B10569F10E9470319B01AC01E6
:101130008091FA039091FB03A091FC03B091FD0311
:10114000281B390B4A0B5B0B8091F6039091F70338
:10115000A091F803B091F903281739074A075B07F4
:1011600018F081E090E08DC0BC01CD01621B730BD3
:10117000840B950B621573058405950510F41B010E
:101180002C018091EF03823021F0863011F08730FE
:1011900041F538893323E9F00E94EC312D893E89ED
:1011A0004F89588D621B730B840B950B60507040F8
:1011B0008140904028F04FEF5FEF5A8F498F11C068
:1011C0000E94EC31AD89BE896A1B7B0B7A8F698FD7
:1011D00008C00E94EC316D8B7E8B8F8B988F1A8E9E
:1011E000198E8091EF03853011F08823B9F4E9A1BD
:1011F000FAA1309719F0CF010E94C9172F8D38A19D
:10120000232B19F41AA219A252C08F8D98A10E9403
:1012100060421AA219A218A21F8E49C08091EB0346
:101220009091EC03892B51F4EB8DFC8D8781908597
:10123000A185B2850097A105B10539F529A13AA18B
:10124000232B29F04F8D58A1452B89F50AC084E442
:1012500090E00E9436189AA389A38F8D98A1892BBC
:1012600031F484E292E00E94634298A38F8FA9A197
:10127000BAA1AB2B21F0EF8DF8A1EF2B49F482E15D
:1012800090E09093F1038093F0031092EF03DACE95
:1012900080EC96E09A83898322E030E0AE014F5FD4
:1012A0005F4F62E070E189A19AA10E949717809137
:1012B000EF038130F9F40894611C711C811C911CAE
:1012C0008091B8049091B904A091BA04B091BB0484
:1012D0002C853D854E855F8582239323A423B523EA
:1012E0000097A105B10511F482E001C084E080936C
:1012F000EF039EC4823009F002C138893F5F3F830B
:101300004889463038F081E090E09093F103809373
:10131000F0035CC48C859D85AE85BF858B839C83E3
:10132000AD83BE83AF8CB8A0ACEEB0E0AA0EBB1EFE
:10133000C98CDA8CEE24FF248701A401930161E0BB
:101340008F8D98A10E948E028C018B819C81AD8132
:10135000BE810097A105B10561F024E0AE014D5FAB
:101360005F4F62E3C501800F911F0E940103080FC8
:10137000191FC501800F911F0E94D801080F191F66
:10138000AFEDB4E0FD0101900020E9F73197EA1BD1
:10139000FB0B1E161F0654F42E2FAD016CE0C50189
:1013A000800F911F0E940103080F191F40E452E0B3
:1013B00069E3C501800F911F0E94DB02080F191F0E
:1013C0002F8D38A14FEF5FEF6FEF7FEF89A19AA1CB
:1013D0000E94060697FF78C0F9C3E090EB03F090F7
:1013E000EC038F8D98A10E9480048C01009709F472
:1013F00052C0FC018081823021F0C8010E943D046E
:101400004AC0E114F10409F422C42091B4043091DB
:10141000B5044091B6045091B7048091B8049091FE
:10142000B904A091BA04B091BB0482239323A423EE
:10143000B5230097A105B105B9F0F701818192812B
:10144000A381B48182179307A407B50709F400C4E8
:10145000F80181819281A381B48182179307A40747
:10146000B50709F0F5C30FC0F80125A136A147A1C2
:1014700050A5F70185A196A1A7A1B0A58217930752
:10148000A407B50720F4C7010E943D04E0C3C801CA
:101490000E943D04DDC3F092EC03E092EB03EF28E1
:1014A00099F08091F6039091F703A091F803B09121
:1014B000F903805E9E42A040B040C0F020EA222E98
:1014C0002FE0322E412C512C820171012F8D38A139
:1014D000B401A30189A19AA10E94FC06BC011816BF
:1014E00019060CF47ACF99230CF470C38091EB03A6
:1014F0009091EC03892B09F49CC383E0F8CE8330F0
:1015000009F051C028892F5F2F833889363008F0C1
:1015100057C2E091EB03F091EC03A180B280C3804D
:10152000D480498D5A8D5F934F93818D928DA38D79
:10153000B48DBF93AF939F938F93EE24FF248701C5
:10154000A40193016F8D78A189A19AA10E94B90687
:10155000ADB7BEB716960FB6F894BEBF0FBEADBFFF
:1015600099230CF433C3820171012F8D38A1B4018A
:10157000A30189A19AA10E94FC06BC0199230CF445
:1015800025C3892B09F455C38F8D98A10E9480042F
:101590009CA38BA3009709F453CDFC011081153057
:1015A00009F436CD1FC2843009F05AC0F889FF5FB4
:1015B000FF83F63040F081E08093EF031C861D86A8
:1015C0001E861F8636C3298D3A8D3F932F931F9217
:1015D0001F921F921F92AC84BD84CE84DF84EE24C0
:1015E000FF248701A40193016F8D78A189A19AA19D
:1015F0000E94B9064DB75EB74A5F5F4F0FB6F894C9
:101600005EBF0FBE4DBF99230CF4E0C28201710191
:101610002F8D38A1B401A30189A19AA10E94FC06D3
:10162000BC0199230CF4D2C2892B09F402C38F8D1B
:1016300098A10E9480049CA38BA3009709F400CD7D
:10164000DC011C91153009F4BFCC163009F0F6C24C
:1016500081E08093EF031C861D861E861F86EEC2E6
:10166000853009F04AC084EF93E00E94A433E091F2
:10167000EB03F091EC03E58CF68C078D10A10E9432
:10168000EC3129893A894B895C89621B730B840B85
:10169000950B6E157F058007910710F086E027CE29
:1016A000E091EB03F091EC03E58CF68C078D10A133
:1016B0000E94EC3129893A894B895C89621B730B42
:1016C000840B950BE61AF70A080B190BC801B70132
:1016D000683339E8730731E4830730E0930720F07B
:1016E00067E379E881E490E028EE33E040E050E001
:1016F0000E94D247AB01BC0197C2863009F0C3C03B
:10170000E091EB03F091EC03A1A0B2A0C3A0D4A0A0
:101710000E94EC317B018C01C201B10128EE33E063
:1017200040E050E00E94114889899A89AB89BC89C0
:10173000E81AF90A0A0B1B0BAE18BF08C00AD10A37
:10174000A216B306C406D50620F5E091EB03F0918E
:10175000EC03E1A0F2A003A114A10E94EC312989BD
:101760003A894B895C89621B730B840B950BE61AD3
:10177000F70A080B190BC801B70128EE33E040E067
:1017800050E00E94D2471B012C0141E050E05E8FE7
:101790004D8FE091EB03F091EC03E1A0F2A003A1E7
:1017A00014A10E94EC3129893A894B895C89621B1A
:1017B000730B840B950B6E157F058007910708F05E
:1017C00044C0E091EB03F091EC03A180B280C380B0
:1017D000D480418D528D638D748D898D9A8D9F93A8
:1017E0008F931F921F921F921F921F921F921F9200
:1017F0001F92840173012F8D38A189A19AA10E94A3
:101800003306ADB7BEB71A960FB6F894BEBF0FBE7B
:10181000ADBF9923D4F0B889BF5FBF838201710146
:101820002F8D38A1B401A30189A19AA10E94FC06C1
:10183000BC01181619067CF0EF81E53031F02D8DD2
:101840003E8D2130310509F0F4C187E08093EF032C
:101850001E8E1D8EEDC18F8D98A10E9480049CA3C9
:101860008BA3009709F4ECCBDC011C91153009F433
:10187000CFCB163009F0E2C187E08093EF031E8ED4
:101880001D8E1F82DBC1873009F0B3C0B889BF5FEE
:10189000BF83E091EB03F091EC03A5A0B6A0C7A035
:1018A000D0A40E94EC317B018C01C201B10128EE71
:1018B00033E040E050E00E94114889899A89AB8961
:1018C000BC89E81AF90A0A0B1B0BAE18BF08C00A3C
:1018D000D10AA216B306C406D50600F5E091EB03C3
:1018E000F091EC03E5A0F6A007A110A50E94EC3151
:1018F00029893A894B895C89621B730B840B950B90
:10190000E61AF70A080B190BC801B70128EE33E0F5
:1019100040E050E00E94D2471B012C01E091EB0314
:10192000F091EC03E5A0F6A007A110A50E94EC3110
:1019300029893A894B895C89621B730B840B950B4F
:101940006E157F0580079107D8F5E091EB03F091C4
:10195000EC03E180F28003811481498D5A8D5F93FD
:101960004F931F921F921F921F92AA24BB246501BE
:10197000A40193016F8D78A189A19AA10E94B90653
:10198000ADB7BEB716960FB6F894BEBF0FBEADBFCB
:101990009923B4F0820171012F8D38A1B401A30104
:1019A00089A19AA10E94FC06BC011816190664F0D0
:1019B000BF81B53029F0ED8DFE8D319709F039C129
:1019C00081E08093EF0335C18F8D98A10E94800440
:1019D0009CA38BA3009709F433CBDC011C91153039
:1019E00009F4FFCA163009F029C181E08093EF03A2
:1019F00025C1883009F088C0B889BF5FBF83E889F6
:101A0000E63008F0E3C0AF8CB8A02CEE30E0A20EB8
:101A1000B31EEB8DFC8DE780F08401851285CC240C
:101A2000DD24A401930168E08F8D98A10E948E02AD
:101A30008C01C501800F911F0E94D801080F191F4A
:101A4000AFEDB4E0FD0101900020E9F73197EA1B0A
:101A5000FB0B51F02E2FAD016CE0C501800F911FE3
:101A60000E940103080F191F40E452E069E3C50119
:101A7000800F911F0E94DB02080F191F2F8D38A1C4
:101A8000488559856A857B8589A19AA10E940606A9
:101A900097FF0BC0288539854A855B852F5F3F4FAF
:101AA0004F4F5F4F09F0C5C091C0820171012F8D6A
:101AB00038A1B401A30189A19AA10E94FC06BC012E
:101AC000009709F4B6C0181619060CF07FC08F8D68
:101AD00098A10E9480049CA38BA3009709F476C070
:101AE000DC018C91853009F071C08091EB039091FD
:101AF000EC030E943D04EBA1FCA1F093EC03E09306
:101B0000EB031CA21BA262C0893009F076C0E091F1
:101B1000EB03F091EC03309719F4F889FF833EC092
:101B200028892F5F2F832130C9F5E180F28003815E
:101B30001481818D928DA38DB48D8B839C83AD8315
:101B4000BE83CC24DD24A401930167E08F8D98A18E
:101B50000E948E028C018B819C81AD81BE81009799
:101B6000A105B10579F08F8D98A184519F4F24E094
:101B7000AE014D5F5F4F66E3800F911F0E9401032E
:101B8000080F191F2F8D38A1488559856A857B85D7
:101B900089A19AA10E94060697FF0BC088859985A6
:101BA000AA85BB858F5F9F4FAF4FBF4F09F041C0E4
:101BB0000DC0820171012F8D38A1B401A30189A14B
:101BC0009AA10E94FC06BC0197FF03C01092EF038C
:101BD00030C0892B71F18F8D98A10E9480049CA345
:101BE0008BA3009709F42CCADC018C91853011F08D
:101BF000863021F51092EF0321C0882319F0B889AF
:101C0000BF8317C08091EB039091EC030E943D04C9
:101C10001092EC031092EB0384EF93E00E94A43344
:101C200040E050E060E070E082EF93E00E94023418
:101C30001F82EBA1FCA1EF2B09F402CA8BA19CA18E
:101C40000E943D04FF81F88B1CA21BA2FBC97801F6
:101C5000F092EC03E092EB0324CC8091EF03C5CA31
:101C6000FC01872F99278083618382E090E00895AB
:101C7000FC01DB0120813327322F222711963C9370
:101C80002E9381819927282B392B2D933C9382E029
:101C900090E00895FC018091020490910304A091CA
:101CA0000404B091050480839183A283B38380915F
:101CB000060490910704A0910804B0910904FB0167
:101CC00080839183A283B3830895EF92FF920F9351
:101CD0001F93CF93DF93EC018B01DB018D919C91DE
:101CE000009729F00E94C82DF80111821082888186
:101CF000807C803C19F482E090E02CC0DE010D90E5
:101D00000020E9F77D01EC1AFD0AC7010E94552D5C
:101D1000FC01D8018D939C9399919E0113C08D91E4
:101D200089934150E0F7892F9927D901A80FB91F4E
:101D3000E80FF91F9C91992311F08EE281939D0188
:101D40002F5F3F4F992321F0492FEF01D901E9CFB0
:101D50001082C701DF91CF911F910F91FF90EF90FB
:101D600008958F929F92AF92BF92CF92DF92EF929F
:101D7000FF920F931F93CF93DF93EC016B01490107
:101D80005A018091FE039091FF03009731F00E9469
:101D9000C82D1092FF031092FE03809100049091D1
:101DA0000104009731F00E94C82D10920104109296
:101DB0000004209781F0FE0101900020E9F7CF0197
:101DC0008C1B9D0B0E94552D9093FF038093FE0367
:101DD000BE010E94CB47C114D10481F0F6010190ED
:101DE0000020E9F7CF018C199D090E94552D909391
:101DF000010480930004B6010E94CB478092020444
:101E000090920304A0920404B0920504E0920604A8
:101E1000F09207040093080410930904DF91CF9116
:101E20001F910F91FF90EF90DF90CF90BF90AF90F8
:101E30009F908F900895EF92FF920F931F93EE243F
:101E4000FF2487010E94B10E1F910F91FF90EF9028
:101E500008952F923F924F925F926F927F928F924E
:101E60009F92AF92BF92CF92DF92EF92FF920F9329
:101E70001F93CF93DF93CDB7DEB760970FB6F8947B
:101E8000DEBF0FBECDBF9E878D87788B6F87809119
:101E9000020490910304A0910404B09105040097FA
:101EA000A105B10569F48091060490910704A09101
:101EB0000804B09109040097A105B10509F4A2C274
:101EC00080E090E00E9436189A878987892B09F470
:101ED00099C280E092E00E94552D4C011C861B8621
:101EE0006624772418861F8222243324AB84BC8482
:101EF00095012F5F3F4F3C872B876114710439F4A4
:101F00008CE090E00E94412E3C01892B69F02B85EA
:101F10003C85F3013183208380E091E093838283C9
:101F200081E090E0958384838F819885892B41F4AB
:101F300086E090E00E94412E98878F83892B31F1B3
:101F4000EF81F88580819181009711F00E94C82D62
:101F5000ED85FE8501900020E9F7CF012D853E85B6
:101F6000821B930B0E94552DEF81F885918380830E
:101F70006D857E850E94CB472F853889EF81F88556
:101F80003383228381E090E095838483F301608131
:101F90007181C4010E94300E8C01F3016281738152
:101FA000C401800F911F0E94300E080F191FF3010A
:101FB00064817581C401800F911F0E94300E080F4B
:101FC000191FF30166817781C401800F911F0E9460
:101FD000300E080F191FF30160857185C401800F51
:101FE000911F0E94300E080F191FF301628573853F
:101FF000C401800F911F0E94300E6801C80ED91EC7
:102000007401EC0CFD1CEF81F885A081B181FD010C
:1020100001900020E9F78F01015010400A1B1B0BB3
:102020000E5F1F4F27010894411C511CF7011082BD
:10203000970115C0B2016F5F7F4FAD014F5F5F4FDA
:102040008E3229F4F2011082DA01920107C0F20106
:102050008083DA01F90180818F5F80832B018C916D
:10206000882341F7F2011082EF81F8856281738144
:10207000C701800F911F0E94300E080F191FEF81BA
:10208000F88564817581C701800F911F0E94300E11
:102090007801E80EF91EEC0CFD1CA0FE0DC040916D
:1020A00006045091070460910804709109044115D9
:1020B00051056105710541F44091020450910304FA
:1020C0006091040470910504840125E330E0898562
:1020D0009A850E94F51797FD38C168EEC62E63E019
:1020E000D62EE12CF12C00E012E09401AE014F5FFE
:1020F0005F4FBE016D5F7F4F89859A850E9475187D
:10210000181619060CF01BC10D973CF3B301C4015E
:102110000E94380E8C01B3016E5F7F4FC401800FA7
:10212000911F0E94380E080F191FB3016C5F7F4F7B
:10213000C401800F911F0E94380E080F191FB301B0
:102140006A5F7F4FC401800F911F0E94380E080FF5
:10215000191FB301685F7F4FC401800F911F0E9458
:10216000380E080F191FB301665F7F4FC401800F3F
:10217000911F0E94380E5801A80EB91EF3018081EC
:1021800091812B853C858217930709F0A6CFA11476
:10219000B10409F4D4C084819581019709F0CFC0BE
:1021A00084010A0D1B1D6F817885C8010E94650E90
:1021B0007C016F8178856E5F7F4FC8018E0D9F1DFA
:1021C0000E94380E6701C80ED91E6F8178856C5F3A
:1021D0007F4FC8018C0D9D1D0E94380E7C01F301BC
:1021E00086819781892B09F4B0C026014E0C5F1CB3
:1021F0004A0C5B1C51E0A52EB12C95C02114310472
:1022000029F48EE090E00E94412E1C017401E40C40
:10221000F51CB101C7010E94650E8C01B1016E5F12
:102220007F4FC701800F911F0E94380E080F191FA2
:10223000B1016C5F7F4FC701800F911F0E94380E64
:10224000080F191F9701200F311FF9018191BF015C
:102250009927AA27BB27BA2FA92F982F8827F101E2
:1022600086839783A087B187F9012181332744278B
:102270005527822B932BA42BB52BBA2FA92F982F40
:102280008827F10186839783A087B187FB0121818D
:10229000332744275527822B932BA42BB52BBA2FFA
:1022A000A92F982F8827F10186839783A087B1876C
:1022B000FB012281332744275527822B932BA42B04
:1022C000B52BF10186839783A087B1870C5F1F4FE1
:1022D000B101665F7F4FC701800F911F0E94380ECA
:1022E000080F191FF101C284D38484859585009756
:1022F00011F00E94C82DC6010E94552DF10195874D
:102300008487E00EF11EA601B7010E94B247F101D9
:1023100082819381019771F0C00ED11E4C0C5D1C1F
:102320000894A11CB11CF301868197818A159B0535
:102330000CF064CFF101828593850497D1F12B8550
:102340003C852630310509F0D1CDEE24FF248701EC
:102350006114710419F0C3010E94C82D8F81988502
:10236000009759F0FC0180819181009711F00E9443
:10237000C82D8F8198850E94C82D2114310489F0C1
:10238000F10180819181009711F00E94C82DF10127
:1023900084859585009711F00E94C82DC1010E9487
:1023A000C82DC4010E94C82D89859A850E94C9172D
:1023B0002CC0F10164857585FB01208181819927FD
:1023C000AA27BB27EE24F82E092F1A2FE20EF11CA4
:1023D000011D111D2381332744275527522F4427E0
:1023E0003327222782819927AA27BB27DC01992737
:1023F0008827280F391F4A1F5B1FE20EF31E041F98
:10240000151FA6CFEE24FF248701C801B7016096EF
:102410000FB6F894DEBF0FBECDBFDF91CF911F91F5
:102420000F91FF90EF90DF90CF90BF90AF909F9073
:102430008F907F906F905F904F903F902F90089576
:102440006FE070E00E94290F089561E070E00E9443
:10245000290F08950F931F93CF93DF938C01C091A1
:102460000A04D0910B04FE011BC0808D918D801752
:10247000910799F4828D938DA48DB58D8217930762
:10248000A407B50751F4868D978D8617970729F411
:102490008389882311F0CF0117C00190F081E02DCE
:1024A000309719F70DC08B89813039F4888D998D5B
:1024B0008017910711F4CE0107C00990D881C02D73
:1024C000209789F780E090E0DF91CF911F910F91E5
:1024D0000895CF93DF93FC01EA01892B09F459C0D9
:1024E00080E162307807E1F080E16330780744F4FE
:1024F0006230710569F06150704109F044C032C02A
:1025000080E165307807B1F066507041E1F51AC09E
:10251000452B69F12230310551F5EE5AFF4F07C0C6
:10252000452B29F12230310511F5E85BFF4F808101
:10253000918124C0452BD9F024303105C1F4E659EE
:10254000FF4F07C0452B99F02430310581F4EA593B
:10255000FF4F80819181A281B38188839983AA836F
:10256000BB830EC0452B19F02230310529F0E05A0B
:10257000FF4F86E190E00BC081899289998388831F
:1025800080E090E008C0E05AFF4F8AE397E2918331
:1025900080838FEF9FEFDF91CF910895FC01892B0E
:1025A00019F486E397E20895E05AFF4F8081918104
:1025B0000895CF93DF93DC01EA016A30710561F081
:1025C0006A30710534F06B30710591F06C30710533
:1025D00019F08FEF9FEF17C0FD01E65BFF4FAA5B7D
:1025E000BF4F8D919C9120813181821B930B03C041
:1025F000FC0185859685AA27BB2788839983AA83B2
:10260000BB8380E090E0DF91CF910895CF93DF937B
:10261000EC0107C0808191818D939C93CF010E9432
:10262000EC35DE01A45BBF4FED91FC911197309723
:1026300089F707C08081918199AF88AFCF010E944F
:10264000EC35E8ADF9AD3097A9F707C080819181ED
:102650008D939C93CF010E94EC35DE01A05BBF4FB0
:10266000ED91FC911197309789F7DF91CF91089503
:102670004F925F926F927F928F929F92AF92BF9292
:10268000CF92DF92EF92FF920F931F93CF93DF933E
:10269000EC012B013A010E94C22F209761F08B8937
:1026A000843061F08B89853049F0C05ADF4F89E46E
:1026B00097E2998388834FEF5FEFB3C041145104D1
:1026C00009F4A2C061147104A1F49EC08B89843006
:1026D00061F7CA59DF4F488159816A817B81C656AB
:1026E000D040CE01825B9F4F0E940234892B09F0BB
:1026F0008BC0CA5BDF4F888199812496C880D980BE
:10270000CA54D0408C159D0509F38C199D09861576
:10271000970518F08824992441C0009719F466247D
:10272000772470C03C01F6CFC45BDF4FA880B9802E
:10273000CC54D040F501018912890C191D0973018F
:10274000E818F908C201880D991D678570890E1572
:102750001F0508F45CC06C0D7D1DA7010E94B247E7
:102760008E0C9F1CCE0CDF1CE016F106B8F0C45B8B
:10277000DF4FF5018081918199838883CC54D040CB
:10278000FE01EA5BFF4F808191818C199D09918345
:102790008083C5010E94EC35CC24DD248614970487
:1027A00018F2C65BDF4FD982C882CA54D0408B89E9
:1027B000843041F5FE01EC5BFF4F408151819A016D
:1027C000260D371DC85BDF4F88819981C854D040E2
:1027D0002817390708F4C901CE5ADF4F28813981FB
:1027E000C255D0402417350748F02817390730F470
:1027F00091838083CE010E942E2004C0CC5BDF4FEA
:1028000099838883A3010DC040E050E00AC06C0D9D
:102810007D1DA8010E94B247800E911EC00ED11EE0
:10282000A6CFCA01DF91CF911F910F91FF90EF903A
:10283000DF90CF90BF90AF909F908F907F906F90E0
:102840005F904F9008950E9438130895CF92DF92C1
:10285000EF92FF920F931F93CF93DF93EC016B01E5
:102860008A010E94C22F209709F451C0C114D104DB
:1028700009F450C00115110509F44CC0CE5ADF4FC0
:10288000E880F980C255D0400E151F0508F4780184
:102890008B898430B1F549A55AA58DA19EA1481B0D
:1028A000590B9A013695279536952795CE5ADF4FC5
:1028B00088819981C255D0402817390738F48DA9ED
:1028C0009EA9841B950B8E159F0578F4C659DF4F82
:1028D000488159816A817B81CA56D040CE01CA960F
:1028E0000E940234892BB1F4D3CF88A1806188A3E0
:1028F000A701B601CE010E94CE1D892B41F4A7018C
:102900000BC0C05ADF4F89E497E2998388834FEF69
:102910005FEF02C040E050E0CA01DF91CF911F910C
:102920000F91FF90EF90DF90CF900895CF92DF92BC
:10293000EF92FF920F931F93CF93DF936C017B0174
:102940008A01C0E0D0E011C0A8014C1B5D0BB701AB
:102950006C0F7D1FC6010E942614181619061CF064
:10296000CFEFDFEF05C0C80FD91FC017D10764F341
:10297000CE01DF91CF911F910F91FF90EF90DF90EB
:10298000CF900895AF92BF92CF92DF92EF92FF92D5
:102990000F931F93CF93DF93EC015B018A01892B87
:1029A00009F4ABC08B89843039F0C05ADF4F89E419
:1029B00097E299838883A1C0ED85FE854115510575
:1029C000A9F4309709F49BC06F857889AF01CE01D7
:1029D0000E9496142F85388997FF02C0C90173C0E1
:1029E000C9010E94C82D1E861D8689C06B01698998
:1029F0007A89309729F54617570710F47A0114C0E1
:102A0000CA010E94FD477C016801C81AD90AA601C3
:102A1000B501CE010E94961497FD6FC0E114F10438
:102A200009F46DC0CA0CDB1C89899A890E94552D56
:102A3000988B8F87009709F460C0A701B60154C036
:102A4000CF01840F951F2F8538898617970768F463
:102A5000B501CF01820F931F0E94B2478D859E85DD
:102A6000800F911F9E878D874AC07B01EE1AFF0A57
:102A7000A701B501CF01820F931F0E94B247498978
:102A80005A896F857889CE010E9496149923CCF0DB
:102A90006501CE0CDF1C98012E193F0969897A89DE
:102AA00026173707C0F0C8010E94FD477C01590175
:102AB000A81AB90AA501B601CE010E94961497FF83
:102AC00007C08F8598890E94C82D1E861D8615C057
:102AD000CA0CDB1C01C079012F853889E114F1048F
:102AE00031F0A701B601C9010E94B24703C0C90174
:102AF0000E94C82DFE86ED8602C00FEF1FEFC801B1
:102B0000DF91CF911F910F91FF90EF90DF90CF90C9
:102B1000BF90AF900895CF92DF92EF92FF920F9304
:102B20001F93CF93DF936C017B01EA01411551059F
:102B3000A1F0CA010E94552D8C01009771F0AE01E1
:102B4000B7010E947F47AE01B801C6010E94C214BE
:102B5000EC01C8010E94C82D07C0AE0160E070E022
:102B6000C6010E94C214EC01CE01DF91CF911F91EA
:102B70000F91FF90EF90DF90CF9008950F931F93E8
:102B80008C0140E050E060E070E00E94C214C80197
:102B90000E94F8271F910F9108950F931F93CF93D1
:102BA000DF93EC018A01892B09F477C080E1623060
:102BB000780751F1E0E163307E0744F4623071053B
:102BC00071F06150704109F062C048C080E1653029
:102BD000780759F16650704109F059C02EC041156F
:102BE000510509F440C022303105E9F58B8988236D
:102BF00029F0C05ADF4F88E497E24DC0CE5ADF4F2C
:102C0000FA01808191810EC04115510561F1223098
:102C1000310549F5FA0180819181C85BDF4F9983C5
:102C200088832497998388832FC0452BE1F0243033
:102C30003105C9F4C659DF4F07C0452BA1F0243038
:102C4000310589F4CA59DF4FF80180819181A28151
:102C5000B38188839983AA83BB8316C0452B19F05F
:102C60002230310529F0C05ADF4F86E190E013C0D1
:102C700040E050E060E070E0CE010E94C214F80134
:102C8000808191819A8B898B80E090E008C0C05A46
:102C9000DF4F8AE397E2998388838FEF9FEFDF917D
:102CA000CF911F910F910895CF93DF9380910C04E2
:102CB000882359F40E94B31F20E0892B09F421E0F6
:102CC00020930C04222309F44BC082E790E00E9479
:102CD000412E009709F444C0EC011B8A84E08C83E8
:102CE00083E294E19E838D8382EC94E198878F83C5
:102CF0008BE895E19A87898789ED92E19C878B879C
:102D00000E949B3069A37AA38BA39CA36DA37EA38F
:102D10008FA398A769A77AA78BA79CA7CC5BDF4F47
:102D200080E99CE0998388832496998388832A96F6
:102D300028E132E039832883269688EE93E0998350
:102D40008883C855D04080910A0490910B049983E0
:102D500088833A8B298BD0930B04C0930A0402C05A
:102D6000C0E0D0E0CE01DF91CF910895CF93DF9303
:102D7000EC0180910A0490910B04EAE0F4E006C0B3
:102D80008C179D0731F0FC01808191810097C1F77C
:102D900019C08881998191838083CE010E94061396
:102DA0008D859E85892B31F08F8598890E94C82D4D
:102DB0001E861D8682E7FE0111928A95E9F7CE01F3
:102DC0000E94C82DDF91CF910895FC01062E672F38
:102DD000702D718F608F0E947E210895CF92DF92B7
:102DE000EF92FF920F931F93CF93DF93EC016A0151
:102DF0007B018901892B09F47AC08B89813029F400
:102E0000C05ADF4F8DE397E270C08B89882329F089
:102E1000C05ADF4F88E497E268C08091FF0290912A
:102E200000038050904141F40E9470316050704F17
:102E3000709300036093FF028091FF029091000362
:102E40000196909300038093FF028091FF0290917E
:102E50000003892B31F480E090E19093000380938C
:102E6000FF02E0910A04F0910B040FC08091FF0271
:102E700090910003082E892F902D208D318D2817D9
:102E8000390759F20190F081E02D309779F7809160
:102E9000FF0290910003082E892F902D998F888F23
:102EA000002E012F102D1F8F0E8FCA8EDB8EEC8E01
:102EB000FD8E40E050E0C701B6010E942919FC01D7
:102EC000892B79F00784F089E02D87819085A18591
:102ED000B2858C8B9D8BAE8BBF8BCE010E94612106
:102EE00008C0C05ADF4F81E597E2998388838FEF4E
:102EF0009FEFDF91CF911F910F91FF90EF90DF90A7
:102F0000CF9008959C01E0919F04F091A0040AC025
:102F1000828193818217930711F4CF010895019064
:102F2000F081E02D3097A1F780E090E00895DC017A
:102F3000FA01892B81F06250704169F4452B59F0F8
:102F40002230310541F480819181FD019387828790
:102F500080E090E008958FEF9FEF0895CF93DF9387
:102F6000DC01FA01892B81F06250704169F4452B34
:102F700059F02230310541F4ED018A859B8591831A
:102F8000808380E090E002C08FEF9FEFDF91CF91D0
:102F90000895CF93DF93EC01E0919F04F091A0049A
:102FA000AFE9B4E01BC080819181EC17FD07A1F46B
:102FB0008D939C9307C0808191819D838C83CF01E9
:102FC0000E94EC35EC81FD813097A9F7CE010E947B
:102FD000C82D80E090E006C0DF01FC01309719F7B2
:102FE0008FEF9FEFDF91CF9108956F927F928F9235
:102FF0009F92AF92BF92CF92DF92EF92FF920F9388
:103000001F93CF93DF933C015A016B014901A70144
:1030100060E880E090E00E942435EC01892B19F4EF
:103020000FEF1FEF13C0A701B8018F8598890E9489
:10303000B2478E019401B601A501C3010E948B28FD
:103040008C01892B19F4CE010E94EC35C801DF9167
:10305000CF911F910F91FF90EF90DF90CF90BF9095
:10306000AF909F908F907F906F900895CF93DF9354
:10307000EC01892B01F540919F045091A004C0916F
:103080000103D0910203219611F4C0E0D0E19E012A
:10309000022E232F302DFA0108C0828193818217DE
:1030A000930789F30190F081E02D3097B1F7D09329
:1030B0000203C09301038CE090E00E94412EFC01CA
:1030C000892B79F00C2ECD2FD02DD383C283809104
:1030D0009F049091A00491838083F093A004E093D7
:1030E0009F04CF01DF91CF9108954F925F926F922D
:1030F0007F928F929F92AF92BF92CF92DF92EF9288
:10310000FF920F931F93CF93DF935C014B013A0122
:103110002901FC01C481D581209769F4B701A6017A
:1031200006960E940234F501C481D581209719F4D6
:1031300040E050E032C088819981F5019583848315
:10314000EF81F88584859585A685B785F401808310
:103150009183A283B383EB85FC8580819181082EC6
:10316000892F902DF30191838083E988FA88970154
:103170000E151F0508F47801F50180859185821BE5
:10318000930B918780876F857889A701C2010E9480
:10319000B247CE010E94EC35A701CA01DF91CF9161
:1031A0001F910F91FF90EF90DF90CF90BF90AF9065
:1031B0009F908F907F906F905F904F900895EF92C7
:1031C000FF920F931F93CF93DF937B018C01EA0152
:1031D000622F6430A0F5E091A104F091A20414C024
:1031E00086819781A085B1858E219F21A023B1235F
:1031F000228133814481558182179307A407B50743
:1032000031F00190F081E02D309751F71AC02097EE
:1032100061F082859385A485B5850097A105B105E8
:1032200021F088839983AA83BB8386859785892B20
:1032300041F46F5FE284F38404851585CACFE0E032
:10324000F0E0CF01DF91CF911F910F91FF90EF90B0
:103250000895FA01452B21F0108211821282138207
:103260006F3F2FEF72072FEF82072FEF920729F49E
:10327000E091A104F091A20405C020E0AF010E94FA
:10328000DF18FC01309719F480E090E008958685FE
:10329000978508954F925F926F927F928F929F923F
:1032A000AF92BF92CF92DF92EF92FF920F931F9354
:1032B000CF93DF93CDB7DEB724970FB6F894DEBF78
:1032C0000FBECDBF2B013C0149015A01E982FA82B0
:1032D0000B831C83E090A104F090A20401EA14E0A7
:1032E00004C08701D701ED90FC90E114F10451F086
:1032F000F70186819781A085B18588169906AA066F
:10330000BB0678F380E190E00E94552D9C01009768
:1033100019F48FEF9FEF1EC0482059206A207B20B0
:10332000FC01428253826482758286829782A086E3
:10333000B18689819A81AB81BC8182879387A4877A
:10334000B587D786C686F182E082D8012D933C935B
:1033500080E090E024960FB6F894DEBF0FBECDBF9C
:10336000DF91CF911F910F91FF90EF90DF90CF9061
:10337000BF90AF909F908F907F906F905F904F9095
:103380000895CF93DF93EC0119821882E091A10494
:10339000F091A20406C00196998388830190F08180
:1033A000E02D888199813097B1F724E0880F991F2B
:1033B0002A95E1F70E94552D009799F0E091A1041C
:1033C000F091A2040BC0EC01DF0120E10D90099205
:1033D0002150E1F740960190F081E02D309799F768
:1033E00002C019821882DF91CF9108954F925F92A7
:1033F0006F927F928F929F92AF92BF92CF92DF9205
:10340000EF92FF920F931F932B013C0149015A0148
:103410002FEF3FEF35C082819381A481B581841560
:103420009505A605B70511F586819781A085B1851B
:1034300088159905AA05BB05C9F482859385A485DD
:10344000B5858E159F05A007B10781F48685978500
:103450008C159D0559F4808191819093A2048093ED
:10346000A104CF010E94C82D20E030E0E091A1042A
:10347000F091A204808191819093A2048093A10491
:10348000E091A104F091A204309729F6C9011F919F
:103490000F91FF90EF90DF90CF90BF90AF909F90F3
:1034A0008F907F906F905F904F900895CF93DF93B0
:1034B000EC0117C0868597858C179D0711F0209722
:1034C00051F4808191819093A2048093A104CF0153
:1034D0000E94C82D06C0808191819093A2048093A0
:1034E000A104E091A104F091A204309719F780E0C3
:1034F00090E0DF91CF910895CF93DF93CDB7DEB702
:1035000024970FB6F894DEBF0FBECDBFFC01198221
:103510001A821B821C82DE01119640E0808180535A
:103520008A3098F520E030E0C90163E0880F991FE8
:103530006A95E1F7220F331F280F391F81919927D0
:1035400087FD9095280F391F2053304080818033AC
:103550003CF08A332CF42F3F310509F0B0F4E4CF6E
:103560002F3F310509F088F44F5F2C9380818E3214
:1035700039F0443051F469817A818B819C8109C092
:10358000443019F011963196C9CF6FEF7FEF8FEF6E
:103590009FEF24960FB6F894DEBF0FBECDBFDF912C
:1035A000CF910895BF92CF92DF92EF92FF920F9347
:1035B0001F93CF93DF93CDB7DEB727970FB6F8945D
:1035C000DEBF0FBECDBF6C837D838E839F83E4E01F
:1035D000EE2EF12CEC0EFD1E40E00DE014E050E06C
:1035E0006E010894C11CD11C7EE2B72E01C0492F88
:1035F000D7012C91822F6AE00E94F147382F8C93DB
:10360000F601E40FF11D822F0E94F147905D908337
:10361000942F9F5F332359F7D801242F2095240F2F
:10362000BE016F5F7F4F05C0FB01E90FF11D808177
:103630008D9391509217C1F74F5FF801E40FF11D80
:10364000DF01BD928D015F5F543028F40894E11CC6
:10365000F11C90E0CCCF10828DE094E027960FB65D
:10366000F894DEBF0FBECDBFDF91CF911F910F91B8
:10367000FF90EF90DF90CF90BF9008952F923F92F0
:103680004F925F926F927F928F929F92AF92BF9272
:10369000CF92DF92EF92FF920F931F93CF93DF931E
:1036A000CDB7DEB72A970FB6F894DEBF0FBECDBFF9
:1036B0001C012A013B0148015901CD82DE82EF82C3
:1036C000F886FC010784F089E02DFA87E987411527
:1036D00051056105710581F44090B4045090B50422
:1036E0006090B6047090B7044114510461047104F1
:1036F00019F48FEF9FEFA4C0E985FA8547825086C1
:103700006186728681149104A104B10431F483E0CE
:1037100093E00E947C1A4B015C01E985FA8587865B
:10372000908AA18AB28AA3019201282139214A21D3
:103730005B2129833A834B835C836101EE24FF2460
:103740008701A501940169817A818B819C810E9406
:103750004A198D819E81AF81B8850097A105B10579
:1037600061F07C018D0120E030E040E050E060E05D
:1037700070E080E090E00E944A19A5EAB4E0F1010F
:10378000329689E001900D928150E1F7E985FA8542
:103790008181882379F48281882361F4838188235D
:1037A00049F48481882331F48581882319F4868142
:1037B000882351F0AEEAB4E0E985FA85319686E0D7
:1037C00001900D928150E1F74092B4045092B504FB
:1037D0006092B6047092B7048092B8049092B904D3
:1037E000A092BA04B092BB042D813E814F815885CE
:1037F0002115310541055105A9F48091BC04909132
:10380000BD04A091BE04B091BF0488219921AA21D2
:10381000BB2129813A814B815C8182179307A407E0
:10382000B50761F08D819E81AF81B8858093BC041E
:103830009093BD04A093BE04B093BF040E94F41CF7
:103840002A960FB6F894DEBF0FBECDBFDF91CF91A1
:103850001F910F91FF90EF90DF90CF90BF90AF90AE
:103860009F908F907F906F905F904F903F902F90A0
:1038700008952F923F924F925F926F927F928F9214
:103880009F92AF92BF92CF92DF92EF92FF920F93EF
:103890001F93CF93DF93CDB7DEB724970FB6F8947D
:1038A000DEBF0FBECDBF7C836B8319012A013701B8
:1038B00048010E947C34FC01009709F464C09A839B
:1038C00089838385833009F05EC0A785B0898C9198
:1038D000863071F41196EB81FC8101900D9281503C
:1038E000E1F77601650194018301B201A10146C0AF
:1038F000873109F048C0A188B288F50121A232A21F
:1039000043A254A2E114F1040105110541F48FEF23
:10391000682E8FEF782E8FEF882E8FEF982EF5017F
:1039200061A672A683A694A6C5010E94A433F501E0
:10393000FF96AE014F5F5F4F67E171E0808191813B
:103940000E94414181E08093A30440E65AEE60E08A
:1039500070E0C5010E940234892BA9F4F50184AD01
:10396000893089F4C5A0D6A0E7A0F0A401A512A5CE
:1039700023A534A541A152A163A174A189819A8193
:103980000E943E1B02C08FEF9FEF24960FB6F89463
:10399000DEBF0FBECDBFDF91CF911F910F91FF9082
:1039A000EF90DF90CF90BF90AF909F908F907F90DF
:1039B0006F905F904F903F902F900895AF92BF927D
:1039C000CF92DF92EF92FF920F931F93AA24BB2412
:1039D00065010E94391C1F910F91FF90EF90DF90BD
:1039E000CF90BF90AF90089580E28093A40440E20E
:1039F00050E064EA74E080E490E00E948136892B14
:103A000019F08FEF9FEF089580E090E00895CF9335
:103A1000DF93EC0140E250E064EA74E080E490E07F
:103A20000E948436892BE9F48091A404803251F4F9
:103A3000BE0185EA94E00E94C247892B19F480E018
:103A400090E011C0E4EAF4E080E2DF011D928A9583
:103A5000E9F746E050E06FEF70E0CF010A960E9470
:103A6000BB478FEF9FEFDF91CF910895AF92BF9249
:103A7000CF92DF92EF92FF920F93CF93DF936C017F
:103A8000FC01A780B084C385D4858D8582FD77C075
:103A9000F601128A118A84E190E096878587288151
:103AA00039818A819B81998388833B832A838D8591
:103AB000992784FF0FC084E08D8788859985AA8522
:103AC000BB858C839D83AE83BF83188619861A8637
:103AD0001B8626C02C813D814E815F8181FF16C0EF
:103AE000DA01C901082E8B2FB02D092E9A2FA02D97
:103AF0000196A11DB11D082E8B2FB02D092E9A2FD6
:103B0000A02D88879987AA87BB8704C02887398713
:103B10004A875B871C821D821E821F8284E18D87FB
:103B200080E58C871F861E861B8A1A8A198A188A46
:103B3000F601E584F6840E2CEF2CF02CF50124859B
:103B4000358546855785608971898289938906E024
:103B50000E946129DC01CB01F60145855685BE0135
:103B60000E945C29998B888BF50144855585668573
:103B70007785960186E00E949329892B19F4C60166
:103B80000E94EC3580E090E0DF91CF910F91FF90A3
:103B9000EF90DF90CF90BF90AF9008956F927F929B
:103BA0008F929F92AF92BF92CF92DF92EF92FF924D
:103BB0000F93CF93DF93CDB7DEB722970FB6F8946C
:103BC000DEBF0FBECDBF6C017B013A01452B29F44E
:103BD000FC0180A18B7009F481C1F60180A181FFF5
:103BE00002C008E101C004E1402F552760E480E0F5
:103BF00090E00E9424354C01009709F48CC0FC0130
:103C0000A384B484F601808D918DF5019183808326
:103C1000F601868D978DF50193838283000F000F47
:103C20000487F60180A1877F80A381A592A5A3A523
:103C3000B4A5082E8B2FB02D092E9A2FA02DF5019B
:103C400084839583A683B783F60180A184FF20C077
:103C500080E1F5018587F60180A18F7E80A320E4B5
:103C600030E0C20ED31EF60180819181A281B38122
:103C700020EC3FEFC20ED31E082E8B2FB02D092E45
:103C80009A2FA02DF50180879187A287B38706C060
:103C9000F50115861086118612861386F60180A11D
:103CA000992781FF2DC022E530E0C20ED31EF60118
:103CB000808191812EEA3FEFC20ED31E082E892FFC
:103CC000902D9A838983F501858582608587F60129
:103CD00080A18D7F80A381A592A5A3A5B4A50196FF
:103CE000A11DB11D81A792A7A3A7B4A782E0F501EA
:103CF000848B84E0858B8981868B8A81878B46C003
:103D00006114710471F1A30160E8C4010E942435BB
:103D10004C01009751F420E630E0C20ED31E87E438
:103D200097E2F60191838083D3C0A301B701FC0120
:103D3000878590890E94B247C301AA27BB27F60155
:103D400021A532A543A554A5280F391F4A1F5B1F83
:103D500021A732A743A754A7F501858588608587E9
:103D600015C080FF13C0F501858581608587F60148
:103D700080A18E7F80A381A592A5A3A5B4A501965D
:103D8000A11DB11D81A792A7A3A7B4A724E430E089
:103D9000C20ED31EF601208131814EE050E0C40EE8
:103DA000D51EF601808191814EEA5FEFC40ED51ECB
:103DB0002817390720F4F5011786168606C0022E4B
:103DC000232F302DF50137872687F501118A108AB8
:103DD000138A128AF401E584F68481899289E80EB7
:103DE000F91E0E2CEF2CF02CF601228D338D448D14
:103DF000558D648975898689978906E00E946129B5
:103E0000DC01CB01F40145855685B5010E942429CA
:103E1000F40141895289678570890E945C29F50106
:103E2000918B808B672841F48585992783709070EA
:103E3000892B11F4740141C0F40111821082F60142
:103E4000A0ADB1AD109791F491AE80AE0E947031EB
:103E50002EE530E0C20ED31E6160F60171836083EF
:103E600022EA3FEFC20ED31E08C0DC018D919C9167
:103E700011970097D1F78D929C9296012C5A3F4F43
:103E8000F90180819181A281B3810097A105B105DB
:103E900081F4F50184819581A681B781082E8B2F4D
:103EA000B02D092E9A2FA02DF90180839183A28332
:103EB000B383C4010E9403367C01F601428D538D09
:103EC000648D758D970186E00E949329892B19F0E6
:103ED0008FEF9FEF05C0C7010E94EC3580E090E0B6
:103EE00022960FB6F894DEBF0FBECDBFDF91CF9103
:103EF0000F91FF90EF90DF90CF90BF90AF909F9089
:103F00008F907F906F900895CF93DF93EC01C05A0C
:103F1000DF4F798368831A921A921A921A92CC55BB
:103F2000D0408B89863018F08AE08B8B01C01B8AC9
:103F3000CE010E940613CE01825B9F4F0E94A433E4
:103F4000CE01CA960E94A433CE018E599F4F0E9483
:103F5000A433CE018C599F4F0E94A43380E090E09F
:103F6000DF91CF91089580911D0490911E04892BBB
:103F700099F420E032E040E050E068E473E281E14F
:103F800093E00E94CE3690931E0480931D04892BEB
:103F900019F48FEF9FEF089580E090E00895CF929D
:103FA000DF92EF92FF920F931F93CF93DF937C01E9
:103FB000FC011182108280911D0490911E04892BB6
:103FC00021F4C7010E94361D40C0C090C404D090A7
:103FD000C504C114D10429F4F092C504E092C404CC
:103FE0002CC0F701C185D28585859685C80FD91F5C
:103FF00081899289C80FD91F00911F041091200454
:104000000050184F0C0F1D1F0E943C2E0817190757
:10401000C8F480911F04909120048C0F9D1F9093F1
:10402000200480931F04F60180819181009711F094
:104030006C01F9CFF601F182E08286EC94E00E94F7
:10404000AF3303C0C7010E94EC35DF91CF911F91C0
:104050000F91FF90EF90DF90CF900895FC01892B96
:1040600019F48FEF9FEF089580A1886180A340E04D
:1040700050E060E070E0CF010E94CE1D80E090E053
:104080000895EF92FF920F931F93CF93DF93EC016C
:104090008B01DC01A45BBF4FED91FC911197309730
:1040A00049F080819181009711F0FC01FACF1183D2
:1040B000008302C06D937C93DE01AA5BBF4F8D919C
:1040C0009C911197F80121893289820F931F8D935A
:1040D0009C9380E4E82EF12CEC0EFD1E6189728920
:1040E0009B0144275527F70180819181A281B381EB
:1040F000820F931FA41FB51F80839183A283B38374
:10410000FE01EC5BFF4F808191816817790718F001
:104110001182108204C0861B970B9183808328A193
:10412000822F806188A3F80180819181892B19F009
:104130001182108202C0286128A340E050E060E0B4
:1041400070E0CE010E94CE1DDF91CF911F910F91A3
:10415000FF90EF9008951F93CF93DF93EC01162FFC
:104160008B89853009F45FC0863088F4823051F144
:10417000833038F4882309F45EC0813009F09AC096
:104180001DC0833039F1843009F094C011C08830EB
:1041900009F479C0893030F4863069F1873009F04C
:1041A00089C046C08930B9F18A3009F083C06BC03C
:1041B000653071F1663009F066C037C0633009F0D0
:1041C00062C005C0633019F0643011F108C088A1E5
:1041D000826137C0643009F46DC0653020F411305D
:1041E00009F051C067C0653001F1663009F04BC07D
:1041F00088A1816026C0673059F0683020F46630AD
:1042000009F041C057C0862F89508230E0F552C076
:1042100088A1886116C06A3019F02FEF3FEF14C0F3
:1042200020E030E011C0683071F588A1816109C0DB
:104230006A3049F53FC06130E9F1623021F588A16B
:10424000826088A381E007C088A1886188A381E09B
:104250002115310589F51B8B8823C1F040E050E022
:1042600060E070E0CE010E94CE1D892B79F0123003
:1042700069F4C05ADF4F80E597E299838883CE01C5
:1042800004960E9420332FEF3FEF16C0153079F4CB
:10429000CE01825B9F4F0E94A433CE018E599F4F67
:1042A0000E94A433CE018C599F4F0E94A43320E07A
:1042B00030E002C080E0CFCFC901DF91CF911F91E4
:1042C0000895CF93DF93EC0162E00E94AB208B89CD
:1042D000823049F440E050E060E070E0CE018C595B
:1042E0009F4F0E9402348B89843019F08FEF9FEF2B
:1042F00002C080E090E0DF91CF910895CF93DF93EB
:10430000EC018B89882339F0C05ADF4F88E497E2AB
:10431000998388830FC061E0CE010E94AB2040E00A
:1043200050E060E070E0CE018E599F4F0E94023451
:1043300080E090E0DF91CF910895CF93DF93EC017F
:10434000FB0180899189A289B3898C8B9D8BAE8B6F
:10435000BF8BFA01808191819F8F8E8FFB018485B5
:104360009585A685B7858A8F9B8FAC8FBD8FFA0107
:1043700084819581A681B781082E8B2FB02D092EBF
:104380009A2FA02D8CAF9DAFAEAFBFAF8DA79EA7CC
:10439000AFA7B8ABC05CDF4F0196A11DB11D8883EC
:1043A0009983AA83BB83C054D04086859785082E05
:1043B000892F902D9EAB8DABFB016485758586851D
:1043C000978540E050E00E942919FC01892B01F1FA
:1043D0000784F089E02D838994898897FE01EE5A3D
:1043E000FF4F208131812115310519F08217930784
:1043F00010F491838083CE5ADF4F28813981C255D2
:10440000D04089899A892817390710F43A8B298B6B
:10441000DF91CF9108950F931F93CF93DF93EC011A
:10442000FC01E65AFF4F8081918101969183808340
:104430000197089718F06CE477E212C0E8ADF9AD87
:10444000008111814A8D5B8D6C8D7D8D9F0186E091
:104450000E949329892B51F019AF08AF62E477E2EB
:10446000CE010E94841F8FEF9FEF09C00E94703120
:10447000C25ADF4F61607983688380E090E0DF910A
:10448000CF911F910F910895CF92DF92EF92FF92FB
:104490000F931F93CF93DF93EC01FB01BA01E084EC
:1044A000F184028513850E2CE12E102D0F2CF02E99
:1044B000002D89A59AA5ABA5BCA58E159F05A007C3
:1044C000B10720F488A1886188A3D7C08DA19EA1DF
:1044D000AFA1B8A5E816F9060A071B0781F52481E4
:1044E000358146815781022E252F502D032E342FE2
:1044F000402D8DA59EA5AFA5B8A982179307A40747
:10450000B50770F0281739074A075B0739F589A9FD
:104510009AA9ABA9BCA9E816F9060A071B07F0F08F
:1045200086859785082E892F902D9EAB8DAB2DA764
:104530003EA74FA758ABE9AAFAAA0BAB1CAB8DA1BB
:104540009EA1AFA1B8A5E816F9060A071B0708F453
:1045500094C0E816F9060A071B07F9F488AD99AD6F
:10456000892B09F48AC0672B09F087C085859927B4
:1045700083709070892B09F080C08FA98F5F8FABFB
:10458000833008F47AC01FAACE010E940B22892B27
:1045900009F473C08FEF9FEF72C01FAAEDA2FEA2B5
:1045A0000FA318A786859785082E892F902D9EAB7F
:1045B0008DABCC5ADF4F88819981AA81BB81C455CC
:1045C000D0400097A105B10541F08E159F05A007C9
:1045D000B10718F4CE010E945428CC5ADF4F18823C
:1045E00019821A821B82C455D0402FC0FB01C3849C
:1045F000D484F6012481358146815781022E252FEE
:10460000502D032E342F402DFB0181899289AA273A
:10461000BB27280F391F4A1F5B1FF6018585992785
:1046200083709070892B21F02F5F3F4F4F4F5F4F6A
:10463000E216F3060407150770F0FB0180819181F3
:1046400099AF88AFCB010E94EC3568AD79AD6115AB
:10465000710561F608C00E947031C25ADF4F616077
:104660007983688304C0C25ADF4F19821882CE55FD
:10467000D040C65ADF4F1982188280E090E0DF9167
:10468000CF911F910F91FF90EF90DF90CF90089501
:10469000CF93DF93CDB7DEB725970FB6F894DEBF83
:1046A0000FBECDBF80E20E943E2F198229812F5F6D
:1046B0002983243058F448EC50E060E070E086EC48
:1046C00094E00E940234892B09F46AC0E0900A0445
:1046D000F0900B0460C0F70180A184FF09C08860DE
:1046E00080A340E050E060E070E0C7010E94CE1D72
:1046F000F70180AD91AD892B01F18701025A1F4F5F
:10470000F80180819181892BC1F00E947031F801FC
:1047100020813181621B730B28E530E0E20EF31E2D
:10472000F7012081318188EA9FEFE80EF91E2617F4
:10473000370718F4C7010E940B22F70183898A30DA
:1047400019F08389893079F4F701E45AFF4F8081A9
:10475000918101969183808301970997C8F0C701E1
:104760000E94B616A2CFF7018389833089F4D7015E
:10477000A45ABF4F8D919C911197019611969C93CD
:104780008E9301978D9720F081E0838B1D921C9270
:10479000F701E080F180E114F10409F09CCF85CFAE
:1047A000C090C404D090C5041092C5041092C404F3
:1047B0001092200410921F040FC4F601A385B48543
:1047C00087819085FC0124853585468557856D91C7
:1047D0007C911197FD01828193810E942A129D8311
:1047E0008C83F6010190F081E02DFB83EA83892B15
:1047F00009F4EDC3F60185859685459708F43BC01D
:10480000638574856C5E7F4F27C0413019F042305C
:10481000F9F403C06F5F7F4F1FC0FB0182819927AE
:10482000382F222783819927282B392B022E232FDB
:10483000302DAC81BD81AE5ABF4F8D919C911197A7
:104840002817390710F42D933C936C5F7F4F04C0F9
:10485000FB018181680F711DFB014081442359F0E8
:10486000F601838594859B01281B390B85859685E8
:104870002817390754F2F60183849484F401F584EF
:10488000EC81FD818389853009F42AC3863098F450
:10489000823009F4A3C1833038F4882309F497C324
:1048A000813009F090C38BC1833009F4EEC18430AC
:1048B00009F089C310C0883009F459C3893038F42D
:1048C000863009F46DC2873009F07DC324C3893076
:1048D00009F4C1C278C3EC81FD8125A836A845A0A2
:1048E00056A067A070A48F2D992782FF0AC0C60129
:1048F0000E94EC3566E477E28C819D810E94841FE2
:104900003DC181FF1AC0F40184819581A681B781E0
:10491000082E8B2FB02D092E9A2FA02DEC81FD8112
:1049200024AD35AD46AD57AD82179307A407B50743
:1049300031F0C6010E94361D21C184FD04C0C601AC
:104940000E94EC351BC1F60141895289B4018C816A
:104950009D810E944422F4014481558166817781C2
:10496000DB01CA01082E8B2FB02D092E9A2FA02D06
:104970002C813D81205C3F4FF90100811181228112
:104980003381E054F040FD83EC83081719072A07B0
:104990003B0708F03EC0F60181899289892B09F412
:1049A000C3C0EC81FD81E05BFF4FE080F1805F01DF
:1049B00025C08A019B01002E032F302D012E122FBE
:1049C000202DF701A385B485FD0184819581A68101
:1049D000B781082E8B2FB02D092E9A2FA02D0817E6
:1049E00019072A073B0770F0081719072A073B0722
:1049F00009F49AC05701F701E080F180E114F10455
:104A0000C1F6EFC2F501D182C082F601F182E082E7
:104A10008EC0042E472F702D052E562F602D401767
:104A200051076207730701F1EC81FD8180A1886164
:104A300080A3EC81FD81E259FF4F80819181A281A9
:104A4000B3810196A11DB11D80839183A283B3839D
:104A5000C6010E94EC3540E050E060E070E08C81DF
:104A60009D810E94CE1D74C0F60181899289892B97
:104A700009F46BC0B6018C819D810E94412042C027
:104A8000F60103851485F80184819581A681B7819B
:104A9000082E8B2FB02D092E9A2FA02D2C813D8111
:104AA000205C3F4FF9012081318142815381E054E4
:104AB000F040FD83EC83281739074A075B0768F14C
:104AC000F60180819181FB0191838083F8018481CB
:104AD0009581A681B781082E8B2FB02D092E9A2F94
:104AE000A02D82179307A407B50749F4B6018C815E
:104AF0009D810E944120F8018585F82A03C0C601E6
:104B00000E94EC356C817D81605B7F4FFB01C08032
:104B1000D180C114D10409F0B3CF8C819D81825B17
:104B20009F4F0E94AF3314C0C6010E94EC35EC8148
:104B3000FD8180A1886180A340E050E060E070E0EA
:104B40008C819D810E94CE1D19C0C6010E94EC354A
:104B5000F0FE14C0EC81FD81E05CFF4F808191810B
:104B6000A281B3810196A11DB11D80839183A2838F
:104B7000B38365E08C819D810E94AB20EC81FD8137
:104B800083898430B1F485A996A9AA27BB2791010E
:104B900044275527281739074A075B0750F085A196
:104BA00096A1A7A1B0A5481659066A067B0608F08B
:104BB00011C28C819D81CA960E94A4330BC2F6E17A
:104BC000FF2222E0F21609F002C2F6016781708529
:104BD000A4018C819D810E949D2153C0AF2CBB24D8
:104BE00090E1692E712C6A207B20A4FE1EC0F40186
:104BF0006085718582859385062E692F902D072EFD
:104C0000782F802DEC81FD81E1A4F2A403A514A5E9
:104C100021A132A143A154A12F5F3F4F4F4F5F4FBE
:104C20000E942728892B09F4D2C1A2FE0AC0672856
:104C300009F4C9C16DE477E28C819D810E94841FD3
:104C4000C2C1A1FEC0C1F60167817085A4018C813B
:104C50009D810E949D216728A1F0F601418952891A
:104C6000B4018C819D810E94442264E08C819D81ED
:104C70000E94AB208C819D818C599F4F0E94AF3345
:104C8000A2C163E08C819D816FC1AF2CBB24A2FEC9
:104C90002AC02C813D812E593F4FF901808191819D
:104CA000E256F040FD83EC83892B29F061E0CF01CF
:104CB0000E94AB2006C06DE477E28C819D810E944A
:104CC000841FC6010E94EC352C813D81225A3F4F42
:104CD000F90111821082EE55F040FD83EC83CF0183
:104CE0000E94061377C1A1FC72C1A4FE6CC1F4013D
:104CF0006085718582859385062E692F902D072EFC
:104D0000782F802DEC81FD81E1A4F2A403A514A5E8
:104D100025A136A147A150A52F5F3F4F4F4F5F4FB1
:104D20000E942728892B09F452C1F6014189528932
:104D3000B4018C819D810E944422F601818992896F
:104D4000892B31F0B6018C819D810E94412003C0E6
:104D5000C6010E94EC35A0FE11C0EC81FD81E05C33
:104D6000FF4F80819181A281B3810196A11DB11D68
:104D700080839183A283B38365E06AC064E08C8101
:104D80009D810E94AB208C819D818E599F4F0E94F6
:104D9000AF338C819D818C599F4F0E94AF331AC1D4
:104DA0000F2D112702FDE7C001FD11C104FF0BC14A
:104DB000F60141895289B4018C819D810E9444226F
:104DC000EC81FD8121A532A543A554A585A196A11D
:104DD000A7A1B0A5281739074A075B0721F469E0A6
:104DE000CF010E94AB20F60181899289892B61F065
:104DF000B6018C819D810E9441208C819D81825BC6
:104E00009F4F0E94AF3303C0C6010E94EC3500FFE4
:104E1000E1C0EC81FD81E05CFF4F80819181A28146
:104E2000B3810196A11DB11D80839183A283B383B9
:104E30002C813D81245A3F4FF90111821082EC559B
:104E4000F040FD83EC838389893009F444C067E036
:104E50008C819D8142C00F2D112702FD8CC001FD68
:104E6000B6C004FFB0C0F60141895289B4018C81FB
:104E70009D810E944422F60181899289892B61F0EB
:104E8000B6018C819D810E9441208C819D81825B35
:104E90009F4F0E94AF3303C0C6010E94EC3500FF54
:104EA00099C0EC81FD81E05CFF4F80819181A281FE
:104EB000B3810196A11DB11D80839183A283B38329
:104EC0002C813D81245A3F4FF90111821082EC550B
:104ED000F040FD83EC836AE0CF010E94AB207AC0F2
:104EE0008F2D992782FF0AC0C6010E94EC3566E427
:104EF00077E28C819D810E94841F6CC081FD67C018
:104F000084FF61C0F60141895289B4018C819D8181
:104F10000E94442258C08F2D992782FD2CC081FD0C
:104F200056C084FF50C0F60141895289B4018C817A
:104F30009D810E944422EC81FD8121A532A543A5DB
:104F400054A585A196A1A7A1B0A5281739074A079E
:104F50005B07C9F5E45AFF4F11821082EC55F0400F
:104F6000FD83EC836AE0CF010E94AB202CC08F2D23
:104F7000992782FF06C0C6010E94EC358C819D8175
:104F80001FC081FD24C084FF1EC0F60141895289E3
:104F9000B4018C819D810E944422C6010E94EC359F
:104FA000EC81FD8121A532A543A554A585A196A13B
:104FB000A7A1B0A5281739074A075B0759F4CF0105
:104FC0000E94B61607C0C6010E94EC3503C0C60198
:104FD0000E94361DCA80DB80C114D10409F0EDCBDC
:104FE00065CBF501D182C082F601118210829FCD7E
:104FF000CF93DF93EC01892B29F10E94C22F8B897B
:10500000853018F4833050F405C0853049F08B307A
:1050100098F40DC0CE010E94B61606C066E001C02D
:1050200068E0CE010E94AB2080E090E00DC0C05A45
:10503000DF4F85E397E204C0C05ADF4F89E497E26F
:10504000998388838FEF9FEFDF91CF910895EF923F
:10505000FF920F931F93E216F3060407150768F0FB
:105060006217730784079507C0F020E030E0E6166A
:10507000F7060807190778F00CC026173707480706
:10508000590758F020E030E06E157F058007910742
:1050900010F021E030E0C90102C080E090E01F91F3
:1050A0000F91FF90EF9008950F931F93CF93DF938D
:1050B000EC018C01025A1F4FF80180819181892BEC
:1050C00029F10E947031C85ADF4F48815981C85573
:1050D000D040440F551FF80120813181621B730BB2
:1050E000460F571F440F551F440F551FF7E0403D13
:1050F0005F0718F468EC70E005C0CA016AE070E070
:105100000E94FD47C85ADF4F79836883DF91CF91B2
:105110001F910F9108954F925F926F927F928F929D
:105120009F92AF92BF92CF92DF92EF92FF920F9336
:105130001F93CF93DF93CDB7DEB724970FB6F894C4
:10514000DEBF0FBECDBF2C013A014B017901C80172
:1051500048E050E060E40E9424355C01009719F4B7
:105160008FEF9FEF5AC0FC01C384D484F201828187
:105170009381F601918380830E2CEF2CF02CF38227
:10518000E282F5018585968521893289820F931FF8
:10519000082E892F902DF60195838483AE014F5FF1
:1051A0005F4FC401B3010E942919FC01892B61F0F2
:1051B0000784F089E02D87819085A185B285898358
:1051C0009A83AB83BC8304C019821A821B821C821F
:1051D000F60117821682E480F58069817A818B81DD
:1051E0009C8101E1A40193010E946129DC01CB01B2
:1051F00048E050E0B6010E942429F5014189528916
:10520000678570890E945C29F601978386839501E2
:10521000B401A30181E10E94932924960FB6F8946A
:10522000DEBF0FBECDBFDF91CF911F910F91FF90D9
:10523000EF90DF90CF90BF90AF909F908F907F9036
:105240006F905F904F900895EF92FF920F931F938E
:105250007C0100271127FB0111C081819927982F1C
:10526000882720813327822B932BAA27BB27E80E80
:10527000F91E0A1F1B1F3296425050404230510502
:1052800060F7452B61F08081E80EF11C011D111DB6
:1052900006C000271127E80EF91E0A1F1B1FC801B0
:1052A000AA27BB270097A105B10599F7C7011F9150
:1052B0000F91FF90EF9008950E942429809590957A
:1052C0000895EF92FF920F93CF93DF93CDB7DEB7A0
:1052D0002C970FB6F894DEBF0FBECDBF69837A83DB
:1052E0008B839C832D833E834F83588719860A873F
:1052F000FC86EB864CE050E0BE016F5F7F4F80E0A4
:1053000090E00E942429AA27BB27BC01CD012C963E
:105310000FB6F894DEBF0FBECDBFDF91CF910F91D6
:10532000FF90EF9008956F927F928F929F92AF922D
:10533000BF92CF92DF92EF92FF920F931F93CF9382
:10534000DF93CDB7DEB72A970FB6F894DEBF0FBE56
:10535000CDBF182F3A014B01C90144E150E060E292
:105360000E9424355C01009709F40EC1FC01E7801E
:10537000F08485E4F70180831182F50181859285AF
:1053800025853685820F931F21893289820F931FCD
:10539000082E892F902DF70193838283178216821E
:1053A000123011F481E002C080E4F7018087F70138
:1053B0001187608A718A828A938AFFEF6F16FFEFE6
:1053C0007F06FFEF8F06FFEF9F0609F05DC046E006
:1053D00050E06FEF70E0CE0105960E94BB47C09091
:1053E0002B04D0902C0420E030E045C0F6018385EA
:1053F000833009F03DC007851089F80185899689B9
:105400000196968B858B0197082E892F902DF70199
:1054100095838483F80187819085A185B285F70102
:1054200084879587A687B78713861286F5014185FD
:1054300052856781708580E090E00E945C29F701C9
:1054400093878287F8018081A78DB0A1863039F4D7
:105450009501AE014B5F5F4F60E078E005C09501BC
:1054600040E050E061E270E0C601FD0119959C0149
:10547000F601C080D180C114D10409F487C0211580
:10548000310509F4B3CF82C0AE014F5F5F4FC40155
:10549000B3010E9429196C01009709F472C0FC0144
:1054A00007851089F801858996890196968B858BE9
:1054B0000197082E892F902DF70195838483F80199
:1054C00087819085A185B285F70184879587A68716
:1054D000B78713861286F5014185528567817085ED
:1054E00080E090E00E945C29F70193878287F801B1
:1054F00080818630B9F589819A81AB81BC81009722
:10550000A105B105B1F487859089A189B289862961
:105510009729A829B9298F5F9F4FAF4FBF4F59F4E3
:1055200046E050E06FEF70E0CE0105960E94BB4769
:105530000FC03C014D019E012B5F3F4FB401A30101
:10554000C6010E94CE2B892B19F020E030E01EC04E
:10555000F801A78DB0A19501AE014B5F5F4F60E0F0
:1055600078E00AC0873169F4F801A78DB0A19501F0
:1055700040E050E061E270E0C601FD0119959C0138
:1055800005C0C5010E94EC352FEF3FEFC9012A96F7
:105590000FB6F894DEBF0FBECDBFDF91CF911F9144
:1055A0000F91FF90EF90DF90CF90BF90AF909F90C2
:1055B0008F907F906F9008950F931F93CF93DF93F9
:1055C000FC01C789D08D8C01095E1F4F17C08C85E7
:1055D00080FF10C0CE010E960E946F3388819981A2
:1055E000F80191838083CE010E946042F801C0815E
:1055F000D18104C08E010990D881C02D209739F740
:10560000DF91CF911F910F9108950F931F93CF9327
:10561000DF930E94EC3120912104309122044091CB
:10562000230450912404621B730B840B950B6C3381
:10563000710581059105E0F10E94EC316093210430
:1056400070932204809323049093240400912B04EC
:1056500010912C042AC0E8018B85833019F5AF85A1
:10566000B8891097F9F08C918630E1F4ED01EF895B
:10567000F88D20E010C0948592FD08C085858F5F6D
:1056800085878150893010F0916094878485282B1C
:105690000190F081E02D309771F720FF03C0CD011C
:1056A0000E94DC2AF801008111810115110599F68B
:1056B000DF91CF911F910F910895AF92BF92CF923A
:1056C000DF92EF92FF920F931F93CF93DF935C01D2
:1056D0007A018B0169010E94052B80E190E00E9414
:1056E0006342FC01892BE9F080E1DF011D928A957C
:1056F000E9F7E282F38204831583C114D10451F0E7
:10570000EF012696D60186E00D9009928150E1F7CF
:1057100082E08487E5018F89988D91838083F88F5B
:10572000EF8BCF01DF91CF911F910F91FF90EF9001
:10573000DF90CF90BF90AF900895CF93DF93FC019F
:10574000C785D089EF89F88D0CC082819381A481AF
:10575000B58184179507A607B70731F00190F0814E
:10576000E02D309791F714C0848582FD0CC015861A
:10577000EF012696D90186E00D9009928150E1F75C
:10578000848582608487CF010E960E94A43303C073
:10579000CE010E945D2BDF91CF9108952F923F9211
:1057A0005F926F927F928F929F92AF92BF92CF92B1
:1057B000DF92EF92FF920F931F93CF93DF93CDB7BA
:1057C000DEB724970FB6F894DEBF0FBECDBF1C0125
:1057D0007A018B013A832983FC01678470880E94D7
:1057E000052BF3010788F08DE02DFC83EB830FC0C0
:1057F000EB81FC8182819381A481B5818E159F0507
:10580000A007B10719F1808191819C838B83EB8183
:10581000FC81EF2B69F720E030E0B801A701C3015C
:105820000E945D2B9C838B83892B09F49AC020E016
:1058300030E0B801A70181E090E00E94FB2C6C01F0
:10584000892B31F4EB81FC8184854CC0CC24DD2490
:1058500021E0522E94EF892E91E0992EA12CB12CAB
:10586000EB81FC81848581FF17C029813A812A5F01
:105870003F4FDF011C968E91F90182939F01898130
:105880009A81E817F907B9F700E010E055C0880CD5
:10589000991CAA1CBB1CE4CF5A949FEF591609F41B
:1058A00049C0C114D10421F1B601C1010E94CC2C20
:1058B000892BF1F0F3012789308D0CC0F901828129
:1058C0009381A481B5818E159F05A007B10731F0A2
:1058D000208131812115310589F743C0F901848583
:1058E00081FD3FC081608487C3010E94DC2A39C0EA
:1058F000B501A4018B819C810E960E940234F301B4
:105900000788F08DE02DFC83EB8310C0EB81FC81D8
:1059100082819381A481B5818E159F05A007B1076F
:1059200009F4B5CF808191819C838B83EB81FC81CD
:10593000EF2B61F70FEF1FEFC114D104A1F0C601E7
:105940000E94EC350115110571F08B819C81009747
:1059500051F0FC01848581608487C3010E94DC2AA8
:1059600002C00FEF1FEFC80124960FB6F894DEBFF8
:105970000FBECDBFDF91CF911F910F91FF90EF90A0
:10598000DF90CF90BF90AF909F908F907F906F905F
:105990005F903F902F9008950F931F93CF93DF93C5
:1059A0008C01AB01FB01C781D085FC016785708943
:1059B000CE010896DB01119626E00D90FC010192C4
:1059C000CF012150D1F7FB0187819085A185B28558
:1059D0008E879F87A88BB98B6296A78DB0A19A01FD
:1059E000AE0166E078E0C801FD011995DF91CF9125
:1059F0001F910F9108958F929F92AF92BF92CF9275
:105A0000DF92EF92FF920F931F93CF93DF938C015E
:105A10004A015B0169014CE150E060E280E090E006
:105A20000E9424357C01009709F431C0FC01C78134
:105A3000D08581E090E0082E892F902D998388836E
:105A400080E098E0082E892F902D9B838A8386E042
:105A50008C8384E08D83002E012F102D1F830E83F5
:105A6000CE014296C114D10441F0DC01F60186E07A
:105A700001900D92815039F0FBCF46E050E06FEF7E
:105A800070E00E94BB47888E998EAA8EBB8EC7019C
:105A9000DF91CF911F910F91FF90EF90DF90CF900A
:105AA000BF90AF909F908F9008950F931F93CF93C7
:105AB000DF9300912504109126048017910730F0A0
:105AC00080E090E060C0EF01DB012FC0AC014A5FD5
:105AD0005F4F4430510510F444E050E0E091C804B9
